:0300000002009566
:0C009500787FE4F6D8FD75810802005A5F
:10005A0075CAFF1200A11200AC7F407E1F12007EFB
:10006A0030B2FD7F4C7E1D12007E30B2F3D2CD122B
:04007A00000380EC13
:0B00A100C2CDC2B0C2B1D2B20200B6A4
:0A00AC00750801D28AD2AFD2AA2251
:03000B0002000EE2
:10000E00C0E0C0F0C083C082C0D075D000C000C0B8
:10001E0001C002C003C004C005C006C00720B31152
:10002E007F327E0012007E20B307D2CD12000380F5
:10003E00FED007D006D005D004D003D002D001D018
:0C004E0000D0D0D082D083D0F0D0E032BF
:05000300D2B0C2B122E1
:0500B600C2B0D2B1222E
:10007E00EF1F70011E144E600D0000007D0B7CBE44
:06008E00DCFEDDFC80EA4F
:010094002249
:00000001FF
